{
  "address": "0x58725535508ca9a60a906e2BC6128B07b77B1F02",
  "abi": [
    {
      "inputs": [
        {
          "internalType": "contract ISwapRouter",
          "name": "_swapRouter",
          "type": "address"
        }
      ],
      "stateMutability": "nonpayable",
      "type": "constructor"
    },
    {
      "inputs": [],
      "name": "DAI",
      "outputs": [
        {
          "internalType": "address",
          "name": "",
          "type": "address"
        }
      ],
      "stateMutability": "view",
      "type": "function"
    },
    {
      "inputs": [],
      "name": "WETH9",
      "outputs": [
        {
          "internalType": "address",
          "name": "",
          "type": "address"
        }
      ],
      "stateMutability": "view",
      "type": "function"
    },
    {
      "inputs": [],
      "name": "feeTier",
      "outputs": [
        {
          "internalType": "uint24",
          "name": "",
          "type": "uint24"
        }
      ],
      "stateMutability": "view",
      "type": "function"
    },
    {
      "inputs": [],
      "name": "swapRouter",
      "outputs": [
        {
          "internalType": "contract ISwapRouter",
          "name": "",
          "type": "address"
        }
      ],
      "stateMutability": "view",
      "type": "function"
    },
    {
      "inputs": [
        {
          "internalType": "uint256",
          "name": "amountIn",
          "type": "uint256"
        }
      ],
      "name": "swapWETHForDAI",
      "outputs": [
        {
          "internalType": "uint256",
          "name": "amountOut",
          "type": "uint256"
        }
      ],
      "stateMutability": "nonpayable",
      "type": "function"
    }
  ],
  "transactionHash": "0x95a271339eef7563bfa051838857ce795d0b732415ddd8a1d8e0584f26fe21a0",
  "args": [
    "0x1234567890abcdef1234567890abcdef12345678"
  ],
  "numDeployments": 1,
  "solcInputHash": "bdc8886931c872b3395e00730fb62194",
  "bytecode": "0x60a060405234801561001057600080fd5b50604051610c1a380380610c1a83398181016040528101906100329190610084565b8073ffffffffffffffffffffffffffffffffffffffff1660808173ffffffffffffffffffffffffffffffffffffffff1660601b8152505050610108565b60008151905061007e816100f1565b92915050565b60006020828403121561009657600080fd5b60006100a48482850161006f565b91505092915050565b60006100b8826100d1565b9050919050565b60006100ca826100ad565b9050919050565b600073ffffffffffffffffffffffffffffffffffffffff82169050919050565b6100fa816100bf565b811461010557600080fd5b50565b60805160601c610ae6610134600039600081816101400152818161022f01526103020152610ae66000f3fe608060405234801561001057600080fd5b50600436106100575760003560e01c80632ed5016f1461005c5780634aa4a4fc1461008c57806372f5d98a146100aa578063c31c9c07146100c8578063e0bab4c4146100e6575b600080fd5b61007660048036038101906100719190610651565b610104565b6040516100839190610992565b60405180910390f35b6100946102e2565b6040516100a19190610885565b60405180910390f35b6100b26102fa565b6040516100bf9190610977565b60405180910390f35b6100d0610300565b6040516100dd9190610900565b60405180910390f35b6100ee610324565b6040516100fb9190610885565b60405180910390f35b600061012673c02aaa39b223fe8d0a0e5c4f27ead9083c756cc233308561033c565b61016573c02aaa39b223fe8d0a0e5c4f27ead9083c756cc27f000000000000000000000000000000000000000000000000000000000000000084610494565b600080600060405180610100016040528073c02aaa39b223fe8d0a0e5c4f27ead9083c756cc273ffffffffffffffffffffffffffffffffffffffff168152602001736b175474e89094c44da98b954eedeac495271d0f73ffffffffffffffffffffffffffffffffffffffff168152602001610bb862ffffff1681526020013373ffffffffffffffffffffffffffffffffffffffff1681526020014281526020018681526020018481526020018373ffffffffffffffffffffffffffffffffffffffff1681525090507f000000000000000000000000000000000000000000000000000000000000000073ffffffffffffffffffffffffffffffffffffffff1663414bf389826040518263ffffffff1660e01b8152600401610286919061095b565b602060405180830381600087803b1580156102a057600080fd5b505af11580156102b4573d6000803e3d6000fd5b505050506040513d601f19601f820116820180604052508101906102d8919061067a565b9350505050919050565b73c02aaa39b223fe8d0a0e5c4f27ead9083c756cc281565b610bb881565b7f000000000000000000000000000000000000000000000000000000000000000081565b736b175474e89094c44da98b954eedeac495271d0f81565b6000808573ffffffffffffffffffffffffffffffffffffffff166323b872dd60e01b868686604051602401610373939291906108a0565b604051602081830303815290604052907bffffffffffffffffffffffffffffffffffffffffffffffffffffffff19166020820180517bffffffffffffffffffffffffffffffffffffffffffffffffffffffff83818316178352505050506040516103dd919061086e565b6000604051808303816000865af19150503d806000811461041a576040519150601f19603f3d011682016040523d82523d6000602084013e61041f565b606091505b509150915081801561044d575060008151148061044c57508080602001905181019061044b9190610628565b5b5b61048c576040517f08c379a00000000000000000000000000000000000000000000000000000000081526004016104839061093b565b60405180910390fd5b505050505050565b6000808473ffffffffffffffffffffffffffffffffffffffff1663095ea7b360e01b85856040516024016104c99291906108d7565b604051602081830303815290604052907bffffffffffffffffffffffffffffffffffffffffffffffffffffffff19166020820180517bffffffffffffffffffffffffffffffffffffffffffffffffffffffff8381831617835250505050604051610533919061086e565b6000604051808303816000865af19150503d8060008114610570576040519150601f19603f3d011682016040523d82523d6000602084013e610575565b606091505b50915091508180156105a357506000815114806105a25750808060200190518101906105a19190610628565b5b5b6105e2576040517f08c379a00000000000000000000000000000000000000000000000000000000081526004016105d99061091b565b60405180910390fd5b5050505050565b6000815190506105f881610a82565b92915050565b60008135905061060d81610a99565b92915050565b60008151905061062281610a99565b92915050565b60006020828403121561063a57600080fd5b6000610648848285016105e9565b91505092915050565b60006020828403121561066357600080fd5b6000610671848285016105fe565b91505092915050565b60006020828403121561068c57600080fd5b600061069a84828501610613565b91505092915050565b6106ac816109d4565b82525050565b6106bb816109d4565b82525050565b60006106cc826109ad565b6106d681856109b8565b93506106e6818560208601610a4f565b80840191505092915050565b6106fb81610a2b565b82525050565b600061070e6002836109c3565b91507f53410000000000000000000000000000000000000000000000000000000000006000830152602082019050919050565b600061074e6003836109c3565b91507f53544600000000000000000000000000000000000000000000000000000000006000830152602082019050919050565b6101008201600082015161079860008501826106a3565b5060208201516107ab60208501826106a3565b5060408201516107be6040850182610832565b5060608201516107d160608501826106a3565b5060808201516107e46080850182610850565b5060a08201516107f760a0850182610850565b5060c082015161080a60c0850182610850565b5060e082015161081d60e0850182610823565b50505050565b61082c816109f2565b82525050565b61083b81610a12565b82525050565b61084a81610a12565b82525050565b61085981610a21565b82525050565b61086881610a21565b82525050565b600061087a82846106c1565b915081905092915050565b600060208201905061089a60008301846106b2565b92915050565b60006060820190506108b560008301866106b2565b6108c260208301856106b2565b6108cf604083018461085f565b949350505050565b60006040820190506108ec60008301856106b2565b6108f9602083018461085f565b9392505050565b600060208201905061091560008301846106f2565b92915050565b6000602082019050818103600083015261093481610701565b9050919050565b6000602082019050818103600083015261095481610741565b9050919050565b6000610100820190506109716000830184610781565b92915050565b600060208201905061098c6000830184610841565b92915050565b60006020820190506109a7600083018461085f565b92915050565b600081519050919050565b600081905092915050565b600082825260208201905092915050565b60006109df826109f2565b9050919050565b60008115159050919050565b600073ffffffffffffffffffffffffffffffffffffffff82169050919050565b600062ffffff82169050919050565b6000819050919050565b6000610a3682610a3d565b9050919050565b6000610a48826109f2565b9050919050565b60005b83811015610a6d578082015181840152602081019050610a52565b83811115610a7c576000848401525b50505050565b610a8b816109e6565b8114610a9657600080fd5b50565b610aa281610a21565b8114610aad57600080fd5b5056fea2646970667358221220220bb79b6886ac96d19ade7f281bd013a62fcf6f2716984ccc55c95416c072c764736f6c63430008000033",
  "devdoc": {
    "kind": "dev",
    "methods": {},
    "version": 1
  },
  "userdoc": {
    "kind": "user",
    "methods": {},
    "version": 1
  },
  "storageLayout": {
    "storage": [],
    "types": null
  }
}